:100000000C9462000C948A000C948A000C944F01AA
:100010000C9479010C94A3010C948A000C948A002E
:100020000C948A000C948A000C948A000C948A0028
:100030000C948A000C948A000C948A000C948A0018
:100040000C94C5050C948A000C94C1020C940F0307
:100050000C948A000C948A000C948A000C948A00F8
:100060000C948A000C948A000000000024002700F1
:100070002A0000000000250028002B0000000000DE
:1000800023002600290004040404040404040202DA
:100090000202020203030303030301020408102007
:1000A0004080010204081020010204081020000012
:1000B0000007000201000003040600000000000029
:1000C00000007B0411241FBECFEFD8E0DEBFCDBF00
:1000D00011E0A0E0B1E0EEE3FDE002C005900D927A
:1000E000A031B107D9F712E0A0E1B1E001C01D9243
:1000F000AD30B107E1F710E0C4ECD0E004C02297C6
:10010000FE010E949906C23CD107C9F70E94D104A2
:100110000C949D060C9400003AC082EE91E00E947F
:100120000204873671F0823719F08236D9F412C092
:1001300082EE91E00E94C10570931101609310015D
:1001400011C082EE91E00E94C1057093130160938B
:10015000120108C082EE91E00E94C1057093150162
:1001600060931401609110017091110189E00E9467
:10017000CD0160911201709113018AE00E94CD01BE
:1001800060911401709115018BE00E94CD0182EE07
:1001900091E00E94D103181619060CF4BECF089501
:1001A00082EE91E040E855E260E070E00E944A0390
:1001B00089E061E00E942D028AE061E00E942D0248
:1001C0008BE061E00E942D0208950F931F93CF935F
:1001D000DF93FC01738D76957170A685B785958543
:1001E000772329F08C91892309F454C004C08C91A1
:1001F000892309F04FC08389948920E001972FEF6C
:100200008F3F9207D9F7C589D689A685B785158509
:1002100060E031E040E050E000E0CE01202F0197A7
:100220002FEF8F3F9207D9F78C91812311F0632B29
:1002300003C0832F80956823330F4F5F5F4F483093
:10024000510559F78789908D20E001972FEF8F3F57
:100250009207D9F771116095809158012091590149
:1002600090E001968F73907030E08217930779F0D9
:10027000E0915801F0E0E85EFE4F60838091580104
:1002800090E001968F7390708093580103C0838D26
:100290008160838FDF91CF911F910F9108951F92FD
:1002A0000F920FB60F9211242F933F934F935F93AA
:1002B0006F937F938F939F93AF93BF93EF93FF932E
:1002C0008091160190911701009711F00E94E500AE
:1002D000FF91EF91BF91AF919F918F917F916F911E
:1002E0005F914F913F912F910F900FBE0F901F90F4
:1002F00018951F920F920FB60F9211242F933F93D0
:100300004F935F936F937F938F939F93AF93BF931D
:10031000EF93FF938091160190911701009711F0D0
:100320000E94E500FF91EF91BF91AF919F918F9156
:100330007F916F915F914F913F912F910F900FBEE1
:100340000F901F9018951F920F920FB60F921124C5
:100350002F933F934F935F936F937F938F939F93CD
:10036000AF93BF93EF93FF93809116019091170184
:10037000009711F00E94E500FF91EF91BF91AF91BE
:100380009F918F917F916F915F914F913F912F91AD
:100390000F900FBE0F901F9018951F93CF93DF9370
:1003A000182FEB0161E00E942D02209709F44AC04A
:1003B000CF3FD10509F449C0E12FF0E0E255FF4FEE
:1003C00084918330C1F0843028F4813051F0823040
:1003D000B1F50CC0863019F1873049F1843079F5D8
:1003E00014C084B5806884BDC7BD33C084B5806245
:1003F00084BDC8BD2EC0809180008068809380003D
:10040000D0938900C093880024C0809180008062CE
:1004100080938000D0938B00C0938A001AC0809193
:10042000B00080688093B000C093B30012C0809188
:10043000B00080628093B000C093B4000AC0C0389E
:10044000D1051CF4812F60E002C0812F61E00E9481
:100450006C02DF91CF911F910895CF93DF93482FC6
:1004600050E0CA0186569F4FFC0134914A575F4FB6
:10047000FA018491882369F190E0880F991FFC01AB
:10048000E859FF4FA591B491FC01EE58FF4FC5917B
:10049000D491662351F42FB7F8948C91932F9095B3
:1004A00089238C93888189230BC0623061F42FB734
:1004B000F8948C91932F909589238C938881832B2A
:1004C00088832FBF06C09FB7F8948C91832B8C93A1
:1004D0009FBFDF91CF910895482F50E0CA01825508
:1004E0009F4FFC012491CA0186569F4FFC019491B5
:1004F0004A575F4FFA013491332309F440C0222355
:1005000051F1233071F0243028F42130A1F0223051
:1005100011F514C02630B1F02730C1F02430D9F4E1
:1005200004C0809180008F7703C0809180008F7D10
:100530008093800010C084B58F7702C084B58F7D12
:1005400084BD09C08091B0008F7703C08091B00056
:100550008F7D8093B000E32FF0E0EE0FFF1FEE5889
:10056000FF4FA591B4912FB7F894662321F48C9195
:100570009095892302C08C91892B8C932FBF08956D
:1005800008951F920F920FB60F9211242F933F934D
:100590004F938F939F93EF93FF938091C00082FDC1
:1005A0001DC04091C60020919A0130919B012F5FA0
:1005B0003F4F2F73307080919C0190919D012817BF
:1005C000390771F0E0919A01F0919B01E65AFE4FD4
:1005D000408330939B0120939A0102C08091C60012
:1005E000FF91EF919F918F914F913F912F910F909C
:1005F0000FBE0F901F901895E091EE01F091EF0162
:10060000E05CFF4F8191919120813181821B930B9E
:100610008F739070892B11F00E94C00208951F9271
:100620000F920FB60F9211242F933F938F939F93A6
:10063000EF93FF932091DE013091DF018091E00183
:100640009091E1012817390731F48091C1008F7D25
:100650008093C10014C0E091E001F091E101E25605
:10066000FE4F20818091E0019091E10101968F730E
:1006700090709093E1018093E0012093C600FF9178
:10068000EF919F918F913F912F910F900FBE0F90FF
:100690001F901895AF92BF92DF92EF92FF920F9347
:1006A0001F93CF93DF93EC017A018B01DD2440305F
:1006B00081EE580780E0680780E0780711F0DD24BC
:1006C000D39491E0A92EB12CEC89FD89DD2069F04D
:1006D000C50108A002C0880F991F0A94E2F7808321
:1006E00060E079E08DE390E005C0108260E874E896
:1006F0008EE190E0A80197010E94750621503040DC
:1007000040405040569547953795279580E12030D9
:10071000380720F0DD2011F0DD24D6CFE889F989F3
:100720003083EA89FB89208319A2EE89FF89408101
:1007300021E030E0C9010C8C02C0880F991F0A9497
:10074000E2F7482B4083EE89FF894081C9010D8C77
:1007500002C0880F991F0A94E2F7482B4083EE8964
:10076000FF894081C9010E8C02C0880F991F0A942D
:10077000E2F7482B4083EE89FF8980810F8C02C00D
:10078000220F331F0A94E2F7209528232083DF915C
:10079000CF911F910F91FF90EF90DF90BF90AF909E
:1007A0000895DC011C96ED91FC911D97E05CFF4FD4
:1007B0002191319180819181281B390B2F733070E9
:1007C000C9010895DC011C96ED91FC911D97E05C38
:1007D000FF4F20813181E054F040DF01AE5BBF4F1D
:1007E0008D919C9111972817390719F42FEF3FEF3E
:1007F00007C08D919C91E80FF91F8081282F30E070
:10080000C9010895DC011C96ED91FC911D97E05CF7
:10081000FF4F20813181E054F040DF01AE5BBF4FDC
:100820008D919C9111972817390719F42FEF3FEFFD
:1008300010C08D919C911197E80FF91F20818D9127
:100840009C91119701968F73907011969C938E9343
:1008500030E0C9010895DC0191968C91919788232D
:1008600039F05496ED91FC915597808186FFF9CF30
:1008700091961C920895CF93DF93EC01EE85FF854E
:10088000E05CFF4F20813181E054F0402F5F3F4F0B
:100890002F733070DF01AE5BBF4F8D919C9111972C
:1008A00028173907D1F3E05CFF4F80819181E05434
:1008B000F040E80FF91F6083EE85FF85E05CFF4F95
:1008C00031832083EE89FF89208181E090E00F8CC5
:1008D00002C0880F991F0A94E2F7282B208381E039
:1008E00089A3EC89FD8980818064808381E090E028
:1008F000DF91CF9108951092E5011092E40188EE06
:1009000093E0A0E0B0E08093E6019093E701A0932C
:10091000E801B093E90184E091E09093E3018093D2
:10092000E2018AE591E09093EF018093EE018EE978
:1009300091E09093F1018093F00185EC90E0909329
:10094000F3018093F20184EC90E09093F5018093A1
:10095000F40180EC90E09093F7018093F60181EC34
:1009600090E09093F9018093F80182EC90E09093ED
:10097000FB018093FA0186EC90E09093FD01809357
:10098000FC0184E08093FE0183E08093FF0187E017
:100990008093000285E08093010281E0809302024F
:1009A0000895CF93DF930E941B060E94D000CCEFE6
:1009B000D2E00E948C002097E1F30E94FC02F9CF64
:1009C000CF92DF92EF92FF920F931F93CF93DF931B
:1009D0007C016B018A01C0E0D0E00FC0D6016D91AF
:1009E0006D01D701ED91FC910190F081E02DC701DF
:1009F0000995C80FD91F015010400115110571F755
:100A0000CE01DF91CF911F910F91FF90EF90DF907A
:100A1000CF900895CF93DF93EC010E940D06688775
:100A200079878A879B87E881F9810084F185E02DA9
:100A3000CE0109959C0197FF15C00E940D062885DF
:100A400039854A855B85621B730B840B950B2C8162
:100A50003D814E815F81621773078407950718F304
:100A60002FEF3FEFC901DF91CF910895CF93DF932F
:100A7000EC01CE010E940A059C0197FD0EC08D324B
:100A8000910559F0C0970A9740F0E881F9810680F6
:100A9000F781E02DCE010995ECCFC901DF91CF910F
:100AA00008959F92AF92BF92CF92DF92EF92FF9202
:100AB0000F931F93CF93DF936C01B62E0E943605E0
:100AC000EC0197FF04C0EE24FF2487014CC0992459
:100AD000EE24FF248701AB2CBB24A7FCB094CA15DD
:100AE000DB0529F1CD32D10519F4992493941FC067
:100AF000CE01C0970A97D8F4C801B7012AE030E0C8
:100B000040E050E00E9456067B018C01CE01AA27EE
:100B100097FDA095BA2FE80EF91E0A1F1B1F80ED46
:100B20009FEFAFEFBFEFE80EF91E0A1F1B1FD601A4
:100B3000ED91FC910680F781E02DC6010995C60173
:100B40000E940A05EC01C0970A9748F2CA15DB0516
:100B500031F2992041F010950095F094E094E11C59
:100B6000F11C011D111DB701C801DF91CF911F912B
:100B70000F91FF90EF90DF90CF90BF90AF909F903C
:100B8000089561E00E94510508951F920F920FB6DB
:100B90000F9211242F933F938F939F93AF93BF9303
:100BA0008091080290910902A0910A02B0910B0273
:100BB00030910C020196A11DB11D232F2D5F2D3701
:100BC00020F02D570196A11DB11D20930C0280939A
:100BD000080290930902A0930A02B0930B0280913D
:100BE000040290910502A0910602B09107020196BD
:100BF000A11DB11D8093040290930502A0930602EB
:100C0000B0930702BF91AF919F918F913F912F9128
:100C10000F900FBE0F901F9018958FB7F8942091EA
:100C200008023091090240910A0250910B028FBFD5
:100C3000B901CA010895789484B5826084BD84B5F1
:100C4000816084BD85B5826085BD85B5816085BDC7
:100C5000EEE6F0E0808181608083E1E8F0E01082E0
:100C6000808182608083808181608083E0E8F0E021
:100C7000808181608083E1EBF0E08081846080830B
:100C8000E0EBF0E0808181608083EAE7F0E0808142
:100C900084608083808182608083808181608083A2
:100CA0008081806880831092C1000895629FD00186
:100CB000739FF001829FE00DF11D649FE00DF11D17
:100CC000929FF00D839FF00D749FF00D659FF00DC6
:100CD0009927729FB00DE11DF91F639FB00DE11DB3
:100CE000F91FBD01CF0111240895A1E21A2EAA1BFC
:100CF000BB1BFD010DC0AA1FBB1FEE1FFF1FA217CC
:100D0000B307E407F50720F0A21BB30BE40BF50BC8
:100D1000661F771F881F991F1A9469F76095709551
:100D2000809590959B01AC01BD01CF010895EE0F18
:0E0D3000FF1F0590F491E02D0994F894FFCF79
:100D3E00000000003B04E004D1030204E2032B0494
:00000001FF
